{
  "_format": "hh-sol-artifact-1",
  "contractName": "LSP11BasicSocialRecovery",
  "sourceName": "contracts/LSP11BasicSocialRecovery/LSP11BasicSocialRecovery.sol",
  "abi": [
    {
      "inputs": [
        {
          "internalType": "address",
          "name": "_account",
          "type": "address"
        },
        {
          "internalType": "bytes32",
          "name": "secret",
          "type": "bytes32"
        },
        {
          "internalType": "uint256",
          "name": "threshold",
          "type": "uint256"
        },
        {
          "internalType": "address[]",
          "name": "guardians",
          "type": "address[]"
        }
      ],
      "stateMutability": "nonpayable",
      "type": "constructor"
    },
    {
      "anonymous": false,
      "inputs": [
        {
          "indexed": true,
          "internalType": "address",
          "name": "previousOwner",
          "type": "address"
        },
        {
          "indexed": true,
          "internalType": "address",
          "name": "newOwner",
          "type": "address"
        }
      ],
      "name": "OwnershipTransferred",
      "type": "event"
    },
    {
      "inputs": [],
      "name": "account",
      "outputs": [
        {
          "internalType": "address",
          "name": "",
          "type": "address"
        }
      ],
      "stateMutability": "view",
      "type": "function"
    },
    {
      "inputs": [
        {
          "internalType": "address",
          "name": "newGuardian",
          "type": "address"
        }
      ],
      "name": "addGuardian",
      "outputs": [],
      "stateMutability": "nonpayable",
      "type": "function"
    },
    {
      "inputs": [
        {
          "internalType": "address",
          "name": "rsContractAddress",
          "type": "address"
        },
        {
          "internalType": "address",
          "name": "publicKey",
          "type": "address"
        }
      ],
      "name": "addRecoveryServiceGuardian",
      "outputs": [],
      "stateMutability": "nonpayable",
      "type": "function"
    },
    {
      "inputs": [
        {
          "internalType": "bytes32",
          "name": "recoverProcessId",
          "type": "bytes32"
        },
        {
          "internalType": "address",
          "name": "guardian",
          "type": "address"
        }
      ],
      "name": "getGuardianVote",
      "outputs": [
        {
          "internalType": "address",
          "name": "",
          "type": "address"
        }
      ],
      "stateMutability": "view",
      "type": "function"
    },
    {
      "inputs": [],
      "name": "getGuardians",
      "outputs": [
        {
          "internalType": "address[]",
          "name": "",
          "type": "address[]"
        }
      ],
      "stateMutability": "view",
      "type": "function"
    },
    {
      "inputs": [],
      "name": "getGuardiansThreshold",
      "outputs": [
        {
          "internalType": "uint256",
          "name": "",
          "type": "uint256"
        }
      ],
      "stateMutability": "view",
      "type": "function"
    },
    {
      "inputs": [],
      "name": "getOwner",
      "outputs": [
        {
          "internalType": "address",
          "name": "owner",
          "type": "address"
        }
      ],
      "stateMutability": "view",
      "type": "function"
    },
    {
      "inputs": [],
      "name": "getRecoverProcessesIds",
      "outputs": [
        {
          "internalType": "bytes32[]",
          "name": "",
          "type": "bytes32[]"
        }
      ],
      "stateMutability": "view",
      "type": "function"
    },
    {
      "inputs": [],
      "name": "getRecoveryServiceGuardians",
      "outputs": [
        {
          "internalType": "address[]",
          "name": "",
          "type": "address[]"
        }
      ],
      "stateMutability": "view",
      "type": "function"
    },
    {
      "inputs": [
        {
          "internalType": "address",
          "name": "_address",
          "type": "address"
        }
      ],
      "name": "isGuardian",
      "outputs": [
        {
          "internalType": "bool",
          "name": "",
          "type": "bool"
        }
      ],
      "stateMutability": "view",
      "type": "function"
    },
    {
      "inputs": [
        {
          "internalType": "address",
          "name": "_address",
          "type": "address"
        }
      ],
      "name": "isRecoveryServiceGuardian",
      "outputs": [
        {
          "internalType": "bool",
          "name": "",
          "type": "bool"
        }
      ],
      "stateMutability": "view",
      "type": "function"
    },
    {
      "inputs": [],
      "name": "owner",
      "outputs": [
        {
          "internalType": "address",
          "name": "",
          "type": "address"
        }
      ],
      "stateMutability": "view",
      "type": "function"
    },
    {
      "inputs": [
        {
          "internalType": "bytes32",
          "name": "recoverProcessId",
          "type": "bytes32"
        },
        {
          "internalType": "bytes32",
          "name": "singleHashtSecret",
          "type": "bytes32"
        },
        {
          "internalType": "bytes32",
          "name": "newHash",
          "type": "bytes32"
        }
      ],
      "name": "recoverOwnership",
      "outputs": [],
      "stateMutability": "nonpayable",
      "type": "function"
    },
    {
      "inputs": [
        {
          "internalType": "address",
          "name": "currentGuardian",
          "type": "address"
        }
      ],
      "name": "removeGuardian",
      "outputs": [],
      "stateMutability": "nonpayable",
      "type": "function"
    },
    {
      "inputs": [
        {
          "internalType": "address",
          "name": "rsAddress",
          "type": "address"
        }
      ],
      "name": "removeRecoveryServiceGuardian",
      "outputs": [],
      "stateMutability": "nonpayable",
      "type": "function"
    },
    {
      "inputs": [],
      "name": "renounceOwnership",
      "outputs": [],
      "stateMutability": "nonpayable",
      "type": "function"
    },
    {
      "inputs": [
        {
          "internalType": "bytes32",
          "name": "newHash",
          "type": "bytes32"
        }
      ],
      "name": "setSecret",
      "outputs": [],
      "stateMutability": "nonpayable",
      "type": "function"
    },
    {
      "inputs": [
        {
          "internalType": "uint256",
          "name": "newThreshold",
          "type": "uint256"
        }
      ],
      "name": "setThreshold",
      "outputs": [],
      "stateMutability": "nonpayable",
      "type": "function"
    },
    {
      "inputs": [
        {
          "internalType": "bytes4",
          "name": "_interfaceId",
          "type": "bytes4"
        }
      ],
      "name": "supportsInterface",
      "outputs": [
        {
          "internalType": "bool",
          "name": "",
          "type": "bool"
        }
      ],
      "stateMutability": "view",
      "type": "function"
    },
    {
      "inputs": [
        {
          "internalType": "address",
          "name": "newOwner",
          "type": "address"
        }
      ],
      "name": "transferOwnership",
      "outputs": [],
      "stateMutability": "nonpayable",
      "type": "function"
    },
    {
      "inputs": [
        {
          "internalType": "bytes32",
          "name": "recoverProcessId",
          "type": "bytes32"
        },
        {
          "internalType": "address",
          "name": "newOwner",
          "type": "address"
        }
      ],
      "name": "voteToRecover",
      "outputs": [],
      "stateMutability": "nonpayable",
      "type": "function"
    },
    {
      "inputs": [
        {
          "internalType": "address",
          "name": "rsContractAddress",
          "type": "address"
        },
        {
          "internalType": "bytes32",
          "name": "recoverProcessId",
          "type": "bytes32"
        },
        {
          "components": [
            {
              "internalType": "bytes32",
              "name": "r",
              "type": "bytes32"
            },
            {
              "internalType": "bytes32",
              "name": "s",
              "type": "bytes32"
            },
            {
              "internalType": "uint8",
              "name": "v",
              "type": "uint8"
            }
          ],
          "internalType": "struct TicketLib.Ticket",
          "name": "ticket",
          "type": "tuple"
        }
      ],
      "name": "voteToRecoverRecoveryService",
      "outputs": [],
      "stateMutability": "payable",
      "type": "function"
    }
  ],
  "bytecode": "0x60806040523480156200001157600080fd5b50604051620023303803806200233083398101604081905262000034916200041a565b600180546001600160a01b0319166001600160a01b0386161790556200006684620000dd602090811b62000e5617901c565b620000718362000144565b60005b8151811015620000c057620000ab82828151811062000097576200009762000546565b6020026020010151620001a860201b60201c565b80620000b7816200051c565b91505062000074565b508115620000d357620000d3826200024a565b5050505062000572565b6000546001600160a01b038281169116146200014157600080546001600160a01b038381166001600160a01b0319831681178455604051919092169283917f8be0079c531659141344cd1fd0a4f28419497f9722a3daafe3b4186f6b6457e09190a3505b50565b6200014e620002f4565b8080620001a25760405162461bcd60e51b815260206004820181905260248201527f53656372657420486173682063616e6e6f74206265206279746573333228302960448201526064015b60405180910390fd5b50600455565b620001b2620002f4565b620001cd8160076200036260201b62000ec81790919060201c565b156200022b5760405162461bcd60e51b815260206004820152602660248201527f50726f7669646564206164647265737320697320616c7265616479206120677560448201526530b93234b0b760d11b606482015260840162000199565b620002468160076200038960201b62000eed1790919060201c565b5050565b62000254620002f4565b6200026b6007620003a060201b62000f021760201c565b81111580156200027b5750600081115b620002ef5760405162461bcd60e51b815260206004820152603460248201527f5468726573686f6c642073686f756c64206265206265747765656e203120616e60448201527f642074686520677561726469616e73436f756e74000000000000000000000000606482015260840162000199565b600255565b33620003086000546001600160a01b031690565b6001600160a01b031614620003605760405162461bcd60e51b815260206004820181905260248201527f4f776e61626c653a2063616c6c6572206973206e6f7420746865206f776e6572604482015260640162000199565b565b6001600160a01b038116600090815260018301602052604081205415155b90505b92915050565b600062000380836001600160a01b038416620003ab565b600062000383825490565b6000818152600183016020526040812054620003f45750815460018181018455600084815260208082209093018490558454848252828601909352604090209190915562000383565b50600062000383565b80516001600160a01b03811681146200041557600080fd5b919050565b600080600080608085870312156200043157600080fd5b6200043c85620003fd565b602086810151604088015160608901519397509095509350906001600160401b03808211156200046b57600080fd5b818801915088601f8301126200048057600080fd5b8151818111156200049557620004956200055c565b8060051b604051601f19603f83011681018181108582111715620004bd57620004bd6200055c565b604052828152858101935084860182860187018d1015620004dd57600080fd5b600095505b838610156200050b57620004f681620003fd565b855260019590950194938601938601620004e2565b50989b979a50959850505050505050565b60006000198214156200053f57634e487b7160e01b600052601160045260246000fd5b5060010190565b634e487b7160e01b600052603260045260246000fd5b634e487b7160e01b600052604160045260246000fd5b611dae80620005826000396000f3fe6080604052600436106101755760003560e01c8063715018a6116100cb578063960bfe041161007f578063cf693aa311610059578063cf693aa3146103e4578063d4adf36214610404578063f2fde38b1461045457600080fd5b8063960bfe041461038f578063a526d83b146103af578063b08cce18146103cf57600080fd5b80637a118daf116100b05780637a118daf14610333578063893d20e8146103535780638da5cb5b1461037157600080fd5b8063715018a61461030b578063780f86e31461032057600080fd5b806330297d2c1161012d5780635dab2420116101075780635dab24201461029357806367012d60146102cb57806371404156146102eb57600080fd5b806330297d2c1461023157806335a9c82f146102515780633f6e97491461027157600080fd5b80630c68ba211161015e5780630c68ba21146101d1578063187c5348146101f15780632bc2764b1461020f57600080fd5b806301ffc9a71461017a5780630665f04b146101af575b600080fd5b34801561018657600080fd5b5061019a610195366004611a4a565b610474565b60405190151581526020015b60405180910390f35b3480156101bb57600080fd5b506101c46104c4565b6040516101a69190611ba4565b3480156101dd57600080fd5b5061019a6101ec3660046118b2565b6104d5565b3480156101fd57600080fd5b506002546040519081526020016101a6565b34801561021b57600080fd5b5061022f61022a3660046118ec565b6104e2565b005b34801561023d57600080fd5b5061019a61024c3660046118b2565b6105fe565b34801561025d57600080fd5b5061022f61026c3660046119e0565b61060b565b34801561027d57600080fd5b50610286610667565b6040516101a69190611bf1565b34801561029f57600080fd5b506001546102b3906001600160a01b031681565b6040516001600160a01b0390911681526020016101a6565b3480156102d757600080fd5b5061022f6102e6366004611a1e565b610684565b3480156102f757600080fd5b5061022f6103063660046118b2565b610873565b34801561031757600080fd5b5061022f610980565b61022f61032e366004611925565b610994565b34801561033f57600080fd5b5061022f61034e3660046119f9565b610ab5565b34801561035f57600080fd5b506001546001600160a01b03166102b3565b34801561037d57600080fd5b506000546001600160a01b03166102b3565b34801561039b57600080fd5b5061022f6103aa3660046119e0565b610b88565b3480156103bb57600080fd5b5061022f6103ca3660046118b2565b610c20565b3480156103db57600080fd5b506101c4610cb1565b3480156103f057600080fd5b5061022f6103ff3660046118b2565b610cbd565b34801561041057600080fd5b506102b361041f3660046119f9565b60035460009081526005602090815260408083209483529381528382206001600160a01b039384168352905291909120541690565b34801561046057600080fd5b5061022f61046f3660046118b2565b610dc6565b60006001600160e01b031982167fcb81043b0000000000000000000000000000000000000000000000000000000014806104be57506301ffc9a760e01b6001600160e01b03198316145b92915050565b60606104d06007610f0c565b905090565b60006104be600783610ec8565b6104ea610f19565b6104f5600983610ec8565b1561056d5760405162461bcd60e51b815260206004820152603760248201527f50726f7669646564206164647265737320697320616c7265616479206120526560448201527f636f76657279205365727669636520677561726469616e00000000000000000060648201526084015b60405180910390fd5b6040517f7803fc5a0000000000000000000000000000000000000000000000000000000081526001600160a01b038281166004830152839190821690637803fc5a90602401600060405180830381600087803b1580156105cc57600080fd5b505af11580156105e0573d6000803e3d6000fd5b505050506105f8836009610eed90919063ffffffff16565b50505050565b60006104be600983610ec8565b610613610f19565b80806106615760405162461bcd60e51b815260206004820181905260248201527f53656372657420486173682063616e6e6f7420626520627974657333322830296044820152606401610564565b50600455565b60035460009081526006602052604090206060906104d090610f82565b80806106d25760405162461bcd60e51b815260206004820181905260248201527f53656372657420486173682063616e6e6f7420626520627974657333322830296044820152606401610564565b6106dc8484610f8d565b600482815560038054600190810190915554604080517f8da5cb5b00000000000000000000000000000000000000000000000000000000815290516000936001600160a01b0390931692638da5cb5b92808201926020929091829003018186803b15801561074957600080fd5b505afa15801561075d573d6000803e3d6000fd5b505050506040513d601f19601f8201168201806040525081019061078191906118cf565b90506107ad817fc403d48f00000000000000000000000000000000000000000000000000000000611141565b61081f5760405162461bcd60e51b815260206004820152603160248201527f4f776e6572206f66206163636f756e7420646f65736e277420737570706f727460448201527f204c53503620496e7465726661636549640000000000000000000000000000006064820152608401610564565b60015460408051617fbf6020820152600092839261085a926001600160a01b039092169133910160405160208183030381529060405261123f565b915091506108698383836114e9565b5050505050505050565b61087b610f19565b610886600782610ec8565b6108dd5760405162461bcd60e51b815260206004820152602260248201527f50726f76696465642061646472657373206973206e6f7420612067756172646960448201526130b760f11b6064820152608401610564565b6002546108ea6007610f02565b6108f46009610f02565b6108fe9190611c89565b116109715760405162461bcd60e51b815260206004820152603460248201527f477561726469616e73206e756d6265722063616e206e6f74206265206c6f776560448201527f72207468616e20746865207468726573686f6c640000000000000000000000006064820152608401610564565b61097c6007826115fd565b5050565b610988610f19565b6109926000610e56565b565b61099f600984610ec8565b610a115760405162461bcd60e51b815260206004820152603460248201527f7273436f6e747261637441646472657373206973206e6f742061205265636f6e60448201527f766572205365727669636520477561726469616e0000000000000000000000006064820152608401610564565b604080517f6586698600000000000000000000000000000000000000000000000000000000815260048101849052336024820181905283516044830152602084015160648301529183015160ff16608482015284906001600160a01b03821690636586698690349060a4016000604051808303818588803b158015610a9557600080fd5b505af1158015610aa9573d6000803e3d6000fd5b50505050505050505050565b610ac0600733610ec8565b80610ad15750610ad1600933610ec8565b610b1d5760405162461bcd60e51b815260206004820152601860248201527f43616c6c6572206973206e6f74206120677561726469616e00000000000000006044820152606401610564565b6003546000818152600660205260409020610b389084611612565b506000908152600560209081526040808320948352938152838220338352905291909120805473ffffffffffffffffffffffffffffffffffffffff19166001600160a01b03909216919091179055565b610b90610f19565b610b9a6007610f02565b8111158015610ba95750600081115b610c1b5760405162461bcd60e51b815260206004820152603460248201527f5468726573686f6c642073686f756c64206265206265747765656e203120616e60448201527f642074686520677561726469616e73436f756e740000000000000000000000006064820152608401610564565b600255565b610c28610f19565b610c33600782610ec8565b15610ca65760405162461bcd60e51b815260206004820152602660248201527f50726f7669646564206164647265737320697320616c7265616479206120677560448201527f61726469616e00000000000000000000000000000000000000000000000000006064820152608401610564565b61097c600782610eed565b60606104d06009610f0c565b610cc5610f19565b610cd0600982610ec8565b610d275760405162461bcd60e51b815260206004820152602260248201527f50726f76696465642061646472657373206973206e6f7420612067756172646960448201526130b760f11b6064820152608401610564565b600254610d346007610f02565b610d3e6009610f02565b610d489190611c89565b11610dbb5760405162461bcd60e51b815260206004820152603460248201527f477561726469616e73206e756d6265722063616e206e6f74206265206c6f776560448201527f72207468616e20746865207468726573686f6c640000000000000000000000006064820152608401610564565b61097c6009826115fd565b610dce610f19565b6001600160a01b038116610e4a5760405162461bcd60e51b815260206004820152602660248201527f4f776e61626c653a206e6577206f776e657220697320746865207a65726f206160448201527f64647265737300000000000000000000000000000000000000000000000000006064820152608401610564565b610e5381610e56565b50565b6000546001600160a01b03828116911614610e5357600080546001600160a01b0383811673ffffffffffffffffffffffffffffffffffffffff19831681178455604051919092169283917f8be0079c531659141344cd1fd0a4f28419497f9722a3daafe3b4186f6b6457e09190a35050565b6001600160a01b038116600090815260018301602052604081205415155b9392505050565b6000610ee6836001600160a01b03841661161a565b60006104be825490565b60606000610ee683611669565b33610f2c6000546001600160a01b031690565b6001600160a01b0316146109925760405162461bcd60e51b815260206004820181905260248201527f4f776e61626c653a2063616c6c6572206973206e6f7420746865206f776e65726044820152606401610564565b60606104be82611669565b600354600080610f9d6007610f02565b90506000610fab6009610f02565b905060005b828110156110105760008581526005602090815260408083208a845290915281203391610fde6007856116c5565b6001600160a01b039081168252602082019290925260400160002054161415611008576001909301925b600101610fb0565b5060005b818110156110745760008581526005602090815260408083208a8452909152812033916110426009856116c5565b6001600160a01b03908116825260208201929092526040016000205416141561106c576001909301925b600101611014565b506002548310156110c75760405162461bcd60e51b815260206004820152601d60248201527f596f75206469646e7420726561636820746865207468726573686f6c640000006044820152606401610564565b60045460408051602081018890520160405160208183030381529060405280519060200120146111395760405162461bcd60e51b815260206004820152600c60248201527f57726f6e672073656372657400000000000000000000000000000000000000006044820152606401610564565b505050505050565b604080516001600160e01b0319831660248083019190915282518083039091018152604490910182526020810180517bffffffffffffffffffffffffffffffffffffffffffffffffffffffff166301ffc9a760e01b179052905160009190829081906001600160a01b03871690617530906111bd908690611b88565b6000604051808303818686fa925050503d80600081146111f9576040519150601f19603f3d011682016040523d82523d6000602084013e6111fe565b606091505b509150915060208151101561121957600093505050506104be565b81801561123557508080602001905181019061123591906119be565b9695505050505050565b604080516003808252608082019092526060918291906020820183803683370190505060408051600380825260808201909252919350816020015b606081526020019060019003908161127a579050506040517f54f6127f0000000000000000000000000000000000000000000000000000000081527fdf30dba06db6a30e65354d9a64c609861f089545ca58c6b4dbe31a5f338cb0e360048201529091506000906001600160a01b038716906354f6127f9060240160006040518083038186803b15801561130d57600080fd5b505afa158015611321573d6000803e3d6000fd5b505050506040513d6000823e601f3d908101601f191682016040526113499190810190611a74565b61135290611cb8565b90506000611361826001611c89565b90507fdf30dba06db6a30e65354d9a64c609861f089545ca58c6b4dbe31a5f338cb0e360001b8460008151811061139a5761139a611d37565b602002602001018181525050806040516020016113b991815260200190565b604051602081830303815290604052836000815181106113db576113db611d37565b60209081029190910101526114107fdf30dba06db6a30e65354d9a64c609861f089545ca58c6b4dbe31a5f338cb0e3836116d1565b8460018151811061142357611423611d37565b60200260200101818152505085604051602001611458919060609190911b6bffffffffffffffffffffffff1916815260140190565b6040516020818303038152906040528360018151811061147a5761147a611d37565b60200260200101819052506114a16b4b80742de2bf82acb363000060a01b8760601b61173e565b846002815181106114b4576114b4611d37565b60200260200101818152505084836002815181106114d4576114d4611d37565b60200260200101819052505050935093915050565b606060008383604051602401611500929190611c04565b60408051601f198184030181529181526020820180517bffffffffffffffffffffffffffffffffffffffffffffffffffffffff167f14a6e29300000000000000000000000000000000000000000000000000000000179052517f09c5eabe0000000000000000000000000000000000000000000000000000000081529091506001600160a01b038616906309c5eabe9061159e908490600401611c76565b600060405180830381600087803b1580156115b857600080fd5b505af11580156115cc573d6000803e3d6000fd5b505050506040513d6000823e601f3d908101601f191682016040526115f49190810190611a74565b95945050505050565b6000610ee6836001600160a01b038416611795565b6000610ee683835b6000818152600183016020526040812054611661575081546001818101845560008481526020808220909301849055845484825282860190935260409020919091556104be565b5060006104be565b6060816000018054806020026020016040519081016040528092919081815260200182805480156116b957602002820191906000526020600020905b8154815260200190600101908083116116a5575b50505050509050919050565b6000610ee68383611888565b60008061172b848460801b604080517fffffffffffffffffffffffffffffffff0000000000000000000000000000000080851660208301528316603082015260609101604051602081830303815290604052905092915050565b905061173681611cb8565b949350505050565b6040805173ffffffffffffffffffffffffffffffffffffffff19841660208201526bffffffffffffffffffffffff198316602c82015260009182910160405160208183030381529060405290508061173690611cb8565b6000818152600183016020526040812054801561187e5760006117b9600183611ca1565b85549091506000906117cd90600190611ca1565b90508181146118325760008660000182815481106117ed576117ed611d37565b906000526020600020015490508087600001848154811061181057611810611d37565b6000918252602080832090910192909255918252600188019052604090208390555b855486908061184357611843611d21565b6001900381819060005260206000200160009055905585600101600086815260200190815260200160002060009055600193505050506104be565b60009150506104be565b600082600001828154811061189f5761189f611d37565b9060005260206000200154905092915050565b6000602082840312156118c457600080fd5b8135610ee681611d63565b6000602082840312156118e157600080fd5b8151610ee681611d63565b600080604083850312156118ff57600080fd5b823561190a81611d63565b9150602083013561191a81611d63565b809150509250929050565b600080600083850360a081121561193b57600080fd5b843561194681611d63565b9350602085013592506060603f198201121561196157600080fd5b506040516060810181811067ffffffffffffffff8211171561198557611985611d4d565b6040908152850135815260608501356020820152608085013560ff811681146119ad57600080fd5b604082015292959194509192509050565b6000602082840312156119d057600080fd5b81518015158114610ee657600080fd5b6000602082840312156119f257600080fd5b5035919050565b60008060408385031215611a0c57600080fd5b82359150602083013561191a81611d63565b600080600060608486031215611a3357600080fd5b505081359360208301359350604090920135919050565b600060208284031215611a5c57600080fd5b81356001600160e01b031981168114610ee657600080fd5b600060208284031215611a8657600080fd5b815167ffffffffffffffff80821115611a9e57600080fd5b818401915084601f830112611ab257600080fd5b815181811115611ac457611ac4611d4d565b604051601f8201601f19908116603f01168101908382118183101715611aec57611aec611d4d565b81604052828152876020848701011115611b0557600080fd5b611b16836020830160208801611cdf565b979650505050505050565b600081518084526020808501945080840160005b83811015611b5157815187529582019590820190600101611b35565b509495945050505050565b60008151808452611b74816020860160208601611cdf565b601f01601f19169290920160200192915050565b60008251611b9a818460208701611cdf565b9190910192915050565b6020808252825182820181905260009190848201906040850190845b81811015611be55783516001600160a01b031683529284019291840191600101611bc0565b50909695505050505050565b602081526000610ee66020830184611b21565b604081526000611c176040830185611b21565b6020838203818501528185518084528284019150828160051b85010183880160005b83811015611c6757601f19878403018552611c55838351611b5c565b94860194925090850190600101611c39565b50909998505050505050505050565b602081526000610ee66020830184611b5c565b60008219821115611c9c57611c9c611d0b565b500190565b600082821015611cb357611cb3611d0b565b500390565b80516020808301519190811015611cd9576000198160200360031b1b821691505b50919050565b60005b83811015611cfa578181015183820152602001611ce2565b838111156105f85750506000910152565b634e487b7160e01b600052601160045260246000fd5b634e487b7160e01b600052603160045260246000fd5b634e487b7160e01b600052603260045260246000fd5b634e487b7160e01b600052604160045260246000fd5b6001600160a01b0381168114610e5357600080fdfea26469706673582212204553571be2f56a7edc835f17aa982b965f468e9e97d7e096ce32a2e171552dfc64736f6c63430008070033",
  "linkReferences": {},
  "deployedLinkReferences": {}
}