{
  "_format": "hh-sol-artifact-1",
  "contractName": "LSP11RecoveryService",
  "sourceName": "contracts/LSP11RecoveryService/LSP11RecoveryService.sol",
  "abi": [
    {
      "inputs": [
        {
          "internalType": "string",
          "name": "_recoveryServiceName",
          "type": "string"
        },
        {
          "internalType": "string",
          "name": "_apiEndpoint",
          "type": "string"
        },
        {
          "internalType": "string",
          "name": "_recoveryServiceImageUrl",
          "type": "string"
        }
      ],
      "stateMutability": "nonpayable",
      "type": "constructor"
    },
    {
      "anonymous": false,
      "inputs": [
        {
          "indexed": true,
          "internalType": "address",
          "name": "previousOwner",
          "type": "address"
        },
        {
          "indexed": true,
          "internalType": "address",
          "name": "newOwner",
          "type": "address"
        }
      ],
      "name": "OwnershipTransferred",
      "type": "event"
    },
    {
      "inputs": [
        {
          "internalType": "address",
          "name": "_publicKey",
          "type": "address"
        }
      ],
      "name": "addLSP11",
      "outputs": [],
      "stateMutability": "nonpayable",
      "type": "function"
    },
    {
      "inputs": [],
      "name": "apiEndpoint",
      "outputs": [
        {
          "internalType": "string",
          "name": "",
          "type": "string"
        }
      ],
      "stateMutability": "view",
      "type": "function"
    },
    {
      "inputs": [
        {
          "internalType": "string",
          "name": "_apiEndpoint",
          "type": "string"
        }
      ],
      "name": "changeApiEndpoint",
      "outputs": [],
      "stateMutability": "nonpayable",
      "type": "function"
    },
    {
      "inputs": [
        {
          "internalType": "address",
          "name": "lsp11ContractAddress",
          "type": "address"
        },
        {
          "internalType": "address",
          "name": "publicKey",
          "type": "address"
        }
      ],
      "name": "changeLSP11",
      "outputs": [],
      "stateMutability": "nonpayable",
      "type": "function"
    },
    {
      "inputs": [
        {
          "internalType": "uint256",
          "name": "_newPrice",
          "type": "uint256"
        }
      ],
      "name": "changePricetoRecover",
      "outputs": [],
      "stateMutability": "nonpayable",
      "type": "function"
    },
    {
      "inputs": [
        {
          "internalType": "string",
          "name": "_recoveryServiceImageUrl",
          "type": "string"
        }
      ],
      "name": "changeRecoveryServiceImageUrl",
      "outputs": [],
      "stateMutability": "nonpayable",
      "type": "function"
    },
    {
      "inputs": [
        {
          "internalType": "string",
          "name": "_recoveryServiceName",
          "type": "string"
        }
      ],
      "name": "changeRecoveryServiceName",
      "outputs": [],
      "stateMutability": "nonpayable",
      "type": "function"
    },
    {
      "inputs": [],
      "name": "currentPricetoRecover",
      "outputs": [
        {
          "internalType": "uint256",
          "name": "",
          "type": "uint256"
        }
      ],
      "stateMutability": "view",
      "type": "function"
    },
    {
      "inputs": [],
      "name": "getApiEndpoint",
      "outputs": [
        {
          "internalType": "string",
          "name": "",
          "type": "string"
        }
      ],
      "stateMutability": "view",
      "type": "function"
    },
    {
      "inputs": [],
      "name": "getBalance",
      "outputs": [
        {
          "internalType": "uint256",
          "name": "",
          "type": "uint256"
        }
      ],
      "stateMutability": "view",
      "type": "function"
    },
    {
      "inputs": [],
      "name": "getCurrentPricetoRecover",
      "outputs": [
        {
          "internalType": "uint256",
          "name": "",
          "type": "uint256"
        }
      ],
      "stateMutability": "view",
      "type": "function"
    },
    {
      "inputs": [
        {
          "internalType": "address",
          "name": "_contracAddress",
          "type": "address"
        }
      ],
      "name": "getPriceforAddress",
      "outputs": [
        {
          "internalType": "uint256",
          "name": "",
          "type": "uint256"
        }
      ],
      "stateMutability": "view",
      "type": "function"
    },
    {
      "inputs": [],
      "name": "getRecoveryServiceImageUrl",
      "outputs": [
        {
          "internalType": "string",
          "name": "",
          "type": "string"
        }
      ],
      "stateMutability": "view",
      "type": "function"
    },
    {
      "inputs": [],
      "name": "getRecoveryServiceName",
      "outputs": [
        {
          "internalType": "string",
          "name": "",
          "type": "string"
        }
      ],
      "stateMutability": "view",
      "type": "function"
    },
    {
      "inputs": [],
      "name": "owner",
      "outputs": [
        {
          "internalType": "address",
          "name": "",
          "type": "address"
        }
      ],
      "stateMutability": "view",
      "type": "function"
    },
    {
      "inputs": [],
      "name": "recoveryServiceImageUrl",
      "outputs": [
        {
          "internalType": "string",
          "name": "",
          "type": "string"
        }
      ],
      "stateMutability": "view",
      "type": "function"
    },
    {
      "inputs": [],
      "name": "recoveryServiceName",
      "outputs": [
        {
          "internalType": "string",
          "name": "",
          "type": "string"
        }
      ],
      "stateMutability": "view",
      "type": "function"
    },
    {
      "inputs": [],
      "name": "renounceOwnership",
      "outputs": [],
      "stateMutability": "nonpayable",
      "type": "function"
    },
    {
      "inputs": [
        {
          "internalType": "bytes4",
          "name": "_interfaceId",
          "type": "bytes4"
        }
      ],
      "name": "supportsInterface",
      "outputs": [
        {
          "internalType": "bool",
          "name": "",
          "type": "bool"
        }
      ],
      "stateMutability": "view",
      "type": "function"
    },
    {
      "inputs": [
        {
          "internalType": "address",
          "name": "newAddress",
          "type": "address"
        }
      ],
      "name": "toggleAuthorizedOwner",
      "outputs": [],
      "stateMutability": "nonpayable",
      "type": "function"
    },
    {
      "inputs": [
        {
          "internalType": "address",
          "name": "newOwner",
          "type": "address"
        }
      ],
      "name": "transferOwnership",
      "outputs": [],
      "stateMutability": "nonpayable",
      "type": "function"
    },
    {
      "inputs": [
        {
          "internalType": "address",
          "name": "lsp11Address",
          "type": "address"
        },
        {
          "internalType": "bytes32",
          "name": "recoverProcessId",
          "type": "bytes32"
        },
        {
          "internalType": "address",
          "name": "newOwner",
          "type": "address"
        }
      ],
      "name": "voteToRecover",
      "outputs": [],
      "stateMutability": "nonpayable",
      "type": "function"
    },
    {
      "inputs": [
        {
          "internalType": "bytes32",
          "name": "recoverProcessId",
          "type": "bytes32"
        },
        {
          "internalType": "address",
          "name": "newOwner",
          "type": "address"
        },
        {
          "components": [
            {
              "internalType": "bytes32",
              "name": "r",
              "type": "bytes32"
            },
            {
              "internalType": "bytes32",
              "name": "s",
              "type": "bytes32"
            },
            {
              "internalType": "uint8",
              "name": "v",
              "type": "uint8"
            }
          ],
          "internalType": "struct TicketLib.Ticket",
          "name": "ticket",
          "type": "tuple"
        }
      ],
      "name": "voteToRecoverWithTicket",
      "outputs": [],
      "stateMutability": "payable",
      "type": "function"
    },
    {
      "inputs": [
        {
          "internalType": "address",
          "name": "withdrawalAddress",
          "type": "address"
        }
      ],
      "name": "withdrawFunds",
      "outputs": [],
      "stateMutability": "nonpayable",
      "type": "function"
    }
  ],
  "bytecode": "0x608060405260006004553480156200001657600080fd5b5060405162001797380380620017978339810160408190526200003991620001fd565b336000908152600160208181526040909220805460ff1916909117905583516200006a9160069190860190620000a0565b50805162000080906007906020840190620000a0565b50815162000096906005906020850190620000a0565b50505050620002e1565b828054620000ae906200028e565b90600052602060002090601f016020900481019282620000d257600085556200011d565b82601f10620000ed57805160ff19168380011785556200011d565b828001600101855582156200011d579182015b828111156200011d57825182559160200191906001019062000100565b506200012b9291506200012f565b5090565b5b808211156200012b576000815560010162000130565b600082601f8301126200015857600080fd5b81516001600160401b0380821115620001755762000175620002cb565b604051601f8301601f19908116603f01168101908282118183101715620001a057620001a0620002cb565b81604052838152602092508683858801011115620001bd57600080fd5b600091505b83821015620001e15785820183015181830184015290820190620001c2565b83821115620001f35760008385830101525b9695505050505050565b6000806000606084860312156200021357600080fd5b83516001600160401b03808211156200022b57600080fd5b620002398783880162000146565b945060208601519150808211156200025057600080fd5b6200025e8783880162000146565b935060408601519150808211156200027557600080fd5b50620002848682870162000146565b9150509250925092565b600181811c90821680620002a357607f821691505b60208210811415620002c557634e487b7160e01b600052602260045260246000fd5b50919050565b634e487b7160e01b600052604160045260246000fd5b6114a680620002f16000396000f3fe60806040526004361061018b5760003560e01c80638da5cb5b116100d6578063d5f0e60b1161007f578063ef43fac711610059578063ef43fac714610415578063f25ecd5d1461042b578063f2fde38b1461044057600080fd5b8063d5f0e60b146103c0578063db2ac5f7146103e0578063dcb996ce146103f557600080fd5b8063bae8e518116100b0578063bae8e51814610376578063cc5e5ea614610396578063ceb59421146103ab57600080fd5b80638da5cb5b14610324578063ad5117cb1461034c578063b71b5c381461036157600080fd5b806368742da61161013857806386043f5c1161011257806386043f5c146102c257806386396823146102e257806389dc5cdc1461030257600080fd5b806368742da61461026d578063715018a61461028d5780637803fc5a146102a257600080fd5b80634cde0bf6116101695780634cde0bf6146102045780635b7a175514610224578063658669861461025a57600080fd5b806301ffc9a71461019057806312065fe0146101c557806344c23d56146101e2575b600080fd5b34801561019c57600080fd5b506101b06101ab3660046112be565b610460565b60405190151581526020015b60405180910390f35b3480156101d157600080fd5b50475b6040519081526020016101bc565b3480156101ee57600080fd5b506102026101fd366004611196565b6104f9565b005b34801561021057600080fd5b5061020261021f3660046113b1565b6105f5565b34801561023057600080fd5b506101d461023f366004611196565b6001600160a01b031660009081526003602052604090205490565b610202610268366004611227565b61066f565b34801561027957600080fd5b50610202610288366004611196565b61086e565b34801561029957600080fd5b5061020261091c565b3480156102ae57600080fd5b506102026102bd366004611196565b610930565b3480156102ce57600080fd5b506102026102dd3660046111b8565b610a07565b3480156102ee57600080fd5b506102026102fd3660046111eb565b610ab7565b34801561030e57600080fd5b50610317610b97565b6040516101bc91906113ca565b34801561033057600080fd5b506000546040516001600160a01b0390911681526020016101bc565b34801561035857600080fd5b50610317610c25565b34801561036d57600080fd5b50610317610c32565b34801561038257600080fd5b50610202610391366004611300565b610cc4565b3480156103a257600080fd5b506004546101d4565b3480156103b757600080fd5b50610317610d4c565b3480156103cc57600080fd5b506102026103db366004611300565b610d5b565b3480156103ec57600080fd5b50610317610de3565b34801561040157600080fd5b50610202610410366004611300565b610df2565b34801561042157600080fd5b506101d460045481565b34801561043757600080fd5b50610317610e7a565b34801561044c57600080fd5b5061020261045b366004611196565b610e87565b60007fffffffff0000000000000000000000000000000000000000000000000000000082167fcb81043c0000000000000000000000000000000000000000000000000000000014806104f357507f01ffc9a7000000000000000000000000000000000000000000000000000000007fffffffff000000000000000000000000000000000000000000000000000000008316145b92915050565b3360009081526001602052604090205460ff166105735760405162461bcd60e51b815260206004820152602d60248201527f596f7520617265206e6f7420617574686f72697a656420746f20706572666f7260448201526c36903a3434b99030b1ba34b7b760991b60648201526084015b60405180910390fd5b336001600160a01b03821614156105cc5760405162461bcd60e51b815260206004820181905260248201527f596f752063616e2774207265766f6b6520796f7572206f776e20616363657373604482015260640161056a565b6001600160a01b03166000908152600160205260409020805460ff19811660ff90911615179055565b3360009081526001602052604090205460ff1661066a5760405162461bcd60e51b815260206004820152602d60248201527f596f7520617265206e6f7420617574686f72697a656420746f20706572666f7260448201526c36903a3434b99030b1ba34b7b760991b606482015260840161056a565b600455565b336000908152600260205260409020546001600160a01b03166106f95760405162461bcd60e51b8152602060048201526024808201527f48617320746f2062652063616c6c65642066726f6d204c5350313120436f6e7460448201527f7261637400000000000000000000000000000000000000000000000000000000606482015260840161056a565b33600090815260036020526040902054341480610717575034600454145b6107635760405162461bcd60e51b815260206004820152601560248201527f5061796d656e74206973206e6f7420656e6f7567680000000000000000000000604482015260640161056a565b604080516001600160a01b03841660208201526000910160408051601f19818403018152918152815160209283012033600090815260029093529120549091506107b990829084906001600160a01b0316610f17565b6108055760405162461bcd60e51b815260206004820152600e60248201527f496e76616c6964207469636b6574000000000000000000000000000000000000604482015260640161056a565b604051637a118daf60e01b8152600481018590526001600160a01b038416602482015233908190637a118daf90604401600060405180830381600087803b15801561084f57600080fd5b505af1158015610863573d6000803e3d6000fd5b505050505050505050565b3360009081526001602052604090205460ff166108e35760405162461bcd60e51b815260206004820152602d60248201527f596f7520617265206e6f7420617574686f72697a656420746f20706572666f7260448201526c36903a3434b99030b1ba34b7b760991b606482015260840161056a565b6040516001600160a01b038216904780156108fc02916000818181858888f19350505050158015610918573d6000803e3d6000fd5b5050565b610924611006565b61092e600061106f565b565b336000908152600260205260409020546001600160a01b0316156109bc5760405162461bcd60e51b815260206004820152602760248201527f50726f7669646564204c53503131206164647265737320697320616c7265616460448201527f7920616464656400000000000000000000000000000000000000000000000000606482015260840161056a565b600454336000908152600360209081526040808320939093556002905220805473ffffffffffffffffffffffffffffffffffffffff19166001600160a01b0392909216919091179055565b3360009081526001602052604090205460ff16610a7c5760405162461bcd60e51b815260206004820152602d60248201527f596f7520617265206e6f7420617574686f72697a656420746f20706572666f7260448201526c36903a3434b99030b1ba34b7b760991b606482015260840161056a565b6001600160a01b039182166000908152600260205260409020805473ffffffffffffffffffffffffffffffffffffffff191691909216179055565b3360009081526001602052604090205460ff16610b2c5760405162461bcd60e51b815260206004820152602d60248201527f596f7520617265206e6f7420617574686f72697a656420746f20706572666f7260448201526c36903a3434b99030b1ba34b7b760991b606482015260840161056a565b604051637a118daf60e01b8152600481018390526001600160a01b038281166024830152849190821690637a118daf90604401600060405180830381600087803b158015610b7957600080fd5b505af1158015610b8d573d6000803e3d6000fd5b5050505050505050565b60068054610ba49061141f565b80601f0160208091040260200160405190810160405280929190818152602001828054610bd09061141f565b8015610c1d5780601f10610bf257610100808354040283529160200191610c1d565b820191906000526020600020905b815481529060010190602001808311610c0057829003601f168201915b505050505081565b60078054610ba49061141f565b606060058054610c419061141f565b80601f0160208091040260200160405190810160405280929190818152602001828054610c6d9061141f565b8015610cba5780601f10610c8f57610100808354040283529160200191610cba565b820191906000526020600020905b815481529060010190602001808311610c9d57829003601f168201915b5050505050905090565b3360009081526001602052604090205460ff16610d395760405162461bcd60e51b815260206004820152602d60248201527f596f7520617265206e6f7420617574686f72697a656420746f20706572666f7260448201526c36903a3434b99030b1ba34b7b760991b606482015260840161056a565b80516109189060069060208401906110e1565b606060078054610c419061141f565b3360009081526001602052604090205460ff16610dd05760405162461bcd60e51b815260206004820152602d60248201527f596f7520617265206e6f7420617574686f72697a656420746f20706572666f7260448201526c36903a3434b99030b1ba34b7b760991b606482015260840161056a565b80516109189060059060208401906110e1565b606060068054610c419061141f565b3360009081526001602052604090205460ff16610e675760405162461bcd60e51b815260206004820152602d60248201527f596f7520617265206e6f7420617574686f72697a656420746f20706572666f7260448201526c36903a3434b99030b1ba34b7b760991b606482015260840161056a565b80516109189060079060208401906110e1565b60058054610ba49061141f565b610e8f611006565b6001600160a01b038116610f0b5760405162461bcd60e51b815260206004820152602660248201527f4f776e61626c653a206e6577206f776e657220697320746865207a65726f206160448201527f6464726573730000000000000000000000000000000000000000000000000000606482015260840161056a565b610f148161106f565b50565b60008060018585604001518660000151876020015160405160008152602001604052604051610f62949392919093845260ff9290921660208401526040830152606082015260800190565b6020604051602081039080840390855afa158015610f84573d6000803e3d6000fd5b5050604051601f1901519150506001600160a01b038116610fe75760405162461bcd60e51b815260206004820152601860248201527f45434453413a20696e76616c6964207369676e61747572650000000000000000604482015260640161056a565b826001600160a01b0316816001600160a01b0316149150509392505050565b336110196000546001600160a01b031690565b6001600160a01b03161461092e5760405162461bcd60e51b815260206004820181905260248201527f4f776e61626c653a2063616c6c6572206973206e6f7420746865206f776e6572604482015260640161056a565b6000546001600160a01b03828116911614610f1457600080546001600160a01b0383811673ffffffffffffffffffffffffffffffffffffffff19831681178455604051919092169283917f8be0079c531659141344cd1fd0a4f28419497f9722a3daafe3b4186f6b6457e09190a35050565b8280546110ed9061141f565b90600052602060002090601f01602090048101928261110f5760008555611155565b82601f1061112857805160ff1916838001178555611155565b82800160010185558215611155579182015b8281111561115557825182559160200191906001019061113a565b50611161929150611165565b5090565b5b808211156111615760008155600101611166565b80356001600160a01b038116811461119157600080fd5b919050565b6000602082840312156111a857600080fd5b6111b18261117a565b9392505050565b600080604083850312156111cb57600080fd5b6111d48361117a565b91506111e26020840161117a565b90509250929050565b60008060006060848603121561120057600080fd5b6112098461117a565b92506020840135915061121e6040850161117a565b90509250925092565b600080600083850360a081121561123d57600080fd5b8435935061124d6020860161117a565b92506060603f198201121561126157600080fd5b506040516060810181811067ffffffffffffffff821117156112855761128561145a565b6040908152850135815260608501356020820152608085013560ff811681146112ad57600080fd5b604082015292959194509192509050565b6000602082840312156112d057600080fd5b81357fffffffff00000000000000000000000000000000000000000000000000000000811681146111b157600080fd5b60006020828403121561131257600080fd5b813567ffffffffffffffff8082111561132a57600080fd5b818401915084601f83011261133e57600080fd5b8135818111156113505761135061145a565b604051601f8201601f19908116603f011681019083821181831017156113785761137861145a565b8160405282815287602084870101111561139157600080fd5b826020860160208301376000928101602001929092525095945050505050565b6000602082840312156113c357600080fd5b5035919050565b600060208083528351808285015260005b818110156113f7578581018301518582016040015282016113db565b81811115611409576000604083870101525b50601f01601f1916929092016040019392505050565b600181811c9082168061143357607f821691505b6020821081141561145457634e487b7160e01b600052602260045260246000fd5b50919050565b634e487b7160e01b600052604160045260246000fdfea2646970667358221220dc3ac64dcdcacc68f26bdefd7019403f4e86993f67e9eb5930e3cc7601abd87564736f6c63430008070033",
  "linkReferences": {},
  "deployedLinkReferences": {}
}